{
  "address": "0xD2474C405734c614475768Ab4224C05f952e38aE",
  "abi": [
    {
      "inputs": [
        {
          "components": [
            {
              "internalType": "string",
              "name": "_symbol",
              "type": "string"
            },
            {
              "internalType": "address",
              "name": "_address",
              "type": "address"
            },
            {
              "internalType": "uint32",
              "name": "_chainId",
              "type": "uint32"
            },
            {
              "internalType": "address",
              "name": "_aggregator",
              "type": "address"
            },
            {
              "internalType": "string[]",
              "name": "_tags",
              "type": "string[]"
            }
          ],
          "internalType": "struct TokenInfo[]",
          "name": "_tokenInfo",
          "type": "tuple[]"
        },
        {
          "internalType": "address",
          "name": "_liquidityManager",
          "type": "address"
        },
        {
          "internalType": "address",
          "name": "router",
          "type": "address"
        },
        {
          "components": [
            {
              "internalType": "uint256",
              "name": "_timeWindow",
              "type": "uint256"
            },
            {
              "internalType": "uint256",
              "name": "_sampleSize",
              "type": "uint256"
            },
            {
              "internalType": "uint256",
              "name": "_bribeUnit",
              "type": "uint256"
            }
          ],
          "internalType": "struct AggregatorParams",
          "name": "_aggregatorParams",
          "type": "tuple"
        }
      ],
      "stateMutability": "nonpayable",
      "type": "constructor"
    },
    {
      "inputs": [
        {
          "internalType": "address",
          "name": "router",
          "type": "address"
        }
      ],
      "name": "InvalidRouter",
      "type": "error"
    },
    {
      "inputs": [],
      "name": "bribeUnit",
      "outputs": [
        {
          "internalType": "uint256",
          "name": "",
          "type": "uint256"
        }
      ],
      "stateMutability": "view",
      "type": "function"
    },
    {
      "inputs": [
        {
          "components": [
            {
              "internalType": "bytes32",
              "name": "messageId",
              "type": "bytes32"
            },
            {
              "internalType": "uint64",
              "name": "sourceChainSelector",
              "type": "uint64"
            },
            {
              "internalType": "bytes",
              "name": "sender",
              "type": "bytes"
            },
            {
              "internalType": "bytes",
              "name": "data",
              "type": "bytes"
            },
            {
              "components": [
                {
                  "internalType": "address",
                  "name": "token",
                  "type": "address"
                },
                {
                  "internalType": "uint256",
                  "name": "amount",
                  "type": "uint256"
                }
              ],
              "internalType": "struct Client.EVMTokenAmount[]",
              "name": "destTokenAmounts",
              "type": "tuple[]"
            }
          ],
          "internalType": "struct Client.Any2EVMMessage",
          "name": "message",
          "type": "tuple"
        }
      ],
      "name": "ccipReceive",
      "outputs": [],
      "stateMutability": "nonpayable",
      "type": "function"
    },
    {
      "inputs": [],
      "name": "chainId",
      "outputs": [
        {
          "internalType": "uint32",
          "name": "",
          "type": "uint32"
        }
      ],
      "stateMutability": "view",
      "type": "function"
    },
    {
      "inputs": [],
      "name": "chainLinkData",
      "outputs": [
        {
          "internalType": "address",
          "name": "router",
          "type": "address"
        },
        {
          "internalType": "address",
          "name": "link",
          "type": "address"
        },
        {
          "internalType": "uint64",
          "name": "currentChainSelectorId",
          "type": "uint64"
        },
        {
          "internalType": "bytes32",
          "name": "keyHash",
          "type": "bytes32"
        }
      ],
      "stateMutability": "view",
      "type": "function"
    },
    {
      "inputs": [
        {
          "internalType": "uint64",
          "name": "",
          "type": "uint64"
        }
      ],
      "name": "chainSelectorIdToSidechainAddress",
      "outputs": [
        {
          "internalType": "address",
          "name": "",
          "type": "address"
        }
      ],
      "stateMutability": "view",
      "type": "function"
    },
    {
      "inputs": [],
      "name": "checkTokenParams",
      "outputs": [],
      "stateMutability": "nonpayable",
      "type": "function"
    },
    {
      "inputs": [],
      "name": "collectPriceFeeds",
      "outputs": [],
      "stateMutability": "nonpayable",
      "type": "function"
    },
    {
      "inputs": [],
      "name": "getRouter",
      "outputs": [
        {
          "internalType": "address",
          "name": "",
          "type": "address"
        }
      ],
      "stateMutability": "view",
      "type": "function"
    },
    {
      "inputs": [],
      "name": "isMainChain",
      "outputs": [
        {
          "internalType": "bool",
          "name": "",
          "type": "bool"
        }
      ],
      "stateMutability": "view",
      "type": "function"
    },
    {
      "inputs": [
        {
          "internalType": "uint256",
          "name": "",
          "type": "uint256"
        }
      ],
      "name": "lastIndexOrder",
      "outputs": [
        {
          "internalType": "uint256",
          "name": "",
          "type": "uint256"
        }
      ],
      "stateMutability": "view",
      "type": "function"
    },
    {
      "inputs": [],
      "name": "lastIndexTimestamp",
      "outputs": [
        {
          "internalType": "uint256",
          "name": "",
          "type": "uint256"
        }
      ],
      "stateMutability": "view",
      "type": "function"
    },
    {
      "inputs": [
        {
          "internalType": "uint256",
          "name": "",
          "type": "uint256"
        }
      ],
      "name": "liquidities",
      "outputs": [
        {
          "internalType": "uint256",
          "name": "",
          "type": "uint256"
        }
      ],
      "stateMutability": "view",
      "type": "function"
    },
    {
      "inputs": [],
      "name": "liquidityManager",
      "outputs": [
        {
          "internalType": "contract LiquidityManager",
          "name": "",
          "type": "address"
        }
      ],
      "stateMutability": "view",
      "type": "function"
    },
    {
      "inputs": [
        {
          "internalType": "uint256",
          "name": "",
          "type": "uint256"
        }
      ],
      "name": "liquidityMessages",
      "outputs": [
        {
          "internalType": "address",
          "name": "token",
          "type": "address"
        },
        {
          "internalType": "uint256",
          "name": "liquidity",
          "type": "uint256"
        },
        {
          "internalType": "uint32",
          "name": "chainId",
          "type": "uint32"
        },
        {
          "internalType": "uint256",
          "name": "timestamp",
          "type": "uint256"
        }
      ],
      "stateMutability": "view",
      "type": "function"
    },
    {
      "inputs": [],
      "name": "mainChainId",
      "outputs": [
        {
          "internalType": "uint32",
          "name": "",
          "type": "uint32"
        }
      ],
      "stateMutability": "view",
      "type": "function"
    },
    {
      "inputs": [
        {
          "internalType": "uint256",
          "name": "",
          "type": "uint256"
        },
        {
          "internalType": "uint256",
          "name": "",
          "type": "uint256"
        }
      ],
      "name": "movingAverage",
      "outputs": [
        {
          "internalType": "uint256",
          "name": "",
          "type": "uint256"
        }
      ],
      "stateMutability": "view",
      "type": "function"
    },
    {
      "inputs": [
        {
          "internalType": "uint256[]",
          "name": "indexOrders",
          "type": "uint256[]"
        },
        {
          "internalType": "string",
          "name": "tag",
          "type": "string"
        }
      ],
      "name": "persistIndex",
      "outputs": [
        {
          "internalType": "bool",
          "name": "",
          "type": "bool"
        }
      ],
      "stateMutability": "nonpayable",
      "type": "function"
    },
    {
      "inputs": [
        {
          "internalType": "uint32",
          "name": "_chainId",
          "type": "uint32"
        },
        {
          "internalType": "uint32",
          "name": "_mainChainId",
          "type": "uint32"
        }
      ],
      "name": "setChainId",
      "outputs": [],
      "stateMutability": "nonpayable",
      "type": "function"
    },
    {
      "inputs": [
        {
          "internalType": "address",
          "name": "_router",
          "type": "address"
        },
        {
          "internalType": "address",
          "name": "_link",
          "type": "address"
        },
        {
          "internalType": "uint64",
          "name": "_currentChainSelectorId",
          "type": "uint64"
        },
        {
          "internalType": "bytes32",
          "name": "_keyHash",
          "type": "bytes32"
        }
      ],
      "name": "setChainLinkData",
      "outputs": [],
      "stateMutability": "nonpayable",
      "type": "function"
    },
    {
      "inputs": [
        {
          "internalType": "uint64",
          "name": "chainSelectorId",
          "type": "uint64"
        },
        {
          "internalType": "address",
          "name": "sideChainAddress",
          "type": "address"
        }
      ],
      "name": "setSideChainAddress",
      "outputs": [],
      "stateMutability": "nonpayable",
      "type": "function"
    },
    {
      "inputs": [
        {
          "internalType": "address",
          "name": "_taggingVerifier",
          "type": "address"
        }
      ],
      "name": "setTaggingVerifier",
      "outputs": [],
      "stateMutability": "nonpayable",
      "type": "function"
    },
    {
      "inputs": [
        {
          "internalType": "uint256",
          "name": "",
          "type": "uint256"
        }
      ],
      "name": "supplyMessages",
      "outputs": [
        {
          "internalType": "address",
          "name": "token",
          "type": "address"
        },
        {
          "internalType": "uint256",
          "name": "supply",
          "type": "uint256"
        },
        {
          "internalType": "uint32",
          "name": "chainId",
          "type": "uint32"
        },
        {
          "internalType": "uint256",
          "name": "timestamp",
          "type": "uint256"
        }
      ],
      "stateMutability": "view",
      "type": "function"
    },
    {
      "inputs": [
        {
          "internalType": "bytes4",
          "name": "interfaceId",
          "type": "bytes4"
        }
      ],
      "name": "supportsInterface",
      "outputs": [
        {
          "internalType": "bool",
          "name": "",
          "type": "bool"
        }
      ],
      "stateMutability": "pure",
      "type": "function"
    },
    {
      "inputs": [],
      "name": "taggingVerifier",
      "outputs": [
        {
          "internalType": "contract TaggingVerifier",
          "name": "",
          "type": "address"
        }
      ],
      "stateMutability": "view",
      "type": "function"
    },
    {
      "inputs": [
        {
          "internalType": "string",
          "name": "",
          "type": "string"
        },
        {
          "internalType": "uint256",
          "name": "",
          "type": "uint256"
        }
      ],
      "name": "tagsIndexOrder",
      "outputs": [
        {
          "internalType": "uint256",
          "name": "",
          "type": "uint256"
        }
      ],
      "stateMutability": "view",
      "type": "function"
    },
    {
      "inputs": [
        {
          "internalType": "string",
          "name": "",
          "type": "string"
        }
      ],
      "name": "tagsIndexTimestamp",
      "outputs": [
        {
          "internalType": "uint256",
          "name": "",
          "type": "uint256"
        }
      ],
      "stateMutability": "view",
      "type": "function"
    },
    {
      "inputs": [
        {
          "internalType": "uint256",
          "name": "",
          "type": "uint256"
        }
      ],
      "name": "tokenInfo",
      "outputs": [
        {
          "internalType": "string",
          "name": "_symbol",
          "type": "string"
        },
        {
          "internalType": "address",
          "name": "_address",
          "type": "address"
        },
        {
          "internalType": "uint32",
          "name": "_chainId",
          "type": "uint32"
        },
        {
          "internalType": "address",
          "name": "_aggregator",
          "type": "address"
        }
      ],
      "stateMutability": "view",
      "type": "function"
    },
    {
      "inputs": [
        {
          "internalType": "uint256",
          "name": "",
          "type": "uint256"
        }
      ],
      "name": "tokenParamsTimestampUpdates",
      "outputs": [
        {
          "internalType": "uint256",
          "name": "",
          "type": "uint256"
        }
      ],
      "stateMutability": "view",
      "type": "function"
    },
    {
      "inputs": [
        {
          "internalType": "uint256",
          "name": "",
          "type": "uint256"
        }
      ],
      "name": "tokenSymbols",
      "outputs": [
        {
          "internalType": "string",
          "name": "",
          "type": "string"
        }
      ],
      "stateMutability": "view",
      "type": "function"
    },
    {
      "inputs": [
        {
          "internalType": "string",
          "name": "",
          "type": "string"
        }
      ],
      "name": "tokens",
      "outputs": [
        {
          "internalType": "uint256",
          "name": "",
          "type": "uint256"
        }
      ],
      "stateMutability": "view",
      "type": "function"
    },
    {
      "inputs": [
        {
          "internalType": "uint256",
          "name": "",
          "type": "uint256"
        }
      ],
      "name": "totalSupplies",
      "outputs": [
        {
          "internalType": "uint256",
          "name": "",
          "type": "uint256"
        }
      ],
      "stateMutability": "view",
      "type": "function"
    },
    {
      "inputs": [
        {
          "internalType": "uint256[]",
          "name": "_totalSupplies",
          "type": "uint256[]"
        },
        {
          "internalType": "uint256[]",
          "name": "_liquidities",
          "type": "uint256[]"
        }
      ],
      "name": "updateTokenParams",
      "outputs": [],
      "stateMutability": "nonpayable",
      "type": "function"
    }
  ],
  "transactionHash": "0x1caa14b3782ebe28ae8e9417a31811e73fc0b455b4217da0a124657c9dd8a0ac",
  "args": [
    [
      {
        "_symbol": "icp",
        "_address": "0x261077B4735a9f51Fa4D039622e44034685f8D15",
        "_chainId": "11155111",
        "_aggregator": "0x39d023905bDe8a03a2DE1277d32Ecd9873669756",
        "_tags": [
          "governance"
        ]
      },
      {
        "_symbol": "uni",
        "_address": "0xE86Aaa5C82E1E27216E5C99965CDFDD7146e427c",
        "_chainId": "11155111",
        "_aggregator": "0x1A25d64647ed559E805b1A3671ff6a7007DeDfe8",
        "_tags": [
          "governance"
        ]
      },
      {
        "_symbol": "mkr",
        "_address": "0x4F5599a8Ac5277844b08AC10f285F5fD835Ea26e",
        "_chainId": "11155111",
        "_aggregator": "0xddEFeB3cb5a1aa63DDfDa11Ac1C19bFDA84852D8",
        "_tags": [
          "governance"
        ]
      },
      {
        "_symbol": "aave",
        "_address": "0x279d81B84a6Ea9a681D2D0C05069D9bCC7b1Dea2",
        "_chainId": "11155111",
        "_aggregator": "0x29BF60e7F7297eB933b669874E6f3D58fB3410bF",
        "_tags": [
          "governance"
        ]
      },
      {
        "_symbol": "xec",
        "_address": "0x3F199C3C5bCa39a6dcFCcD58ef4444f005340E8c",
        "_chainId": "11155111",
        "_aggregator": "0xb76129dEa978931f2b6Eb5d19Cf0ffa8637E221B",
        "_tags": [
          "governance"
        ]
      },
      {
        "_symbol": "rbn",
        "_address": "0xD0a2eAC2c85F5268862be40DC2C5A291E2642203",
        "_chainId": "11155111",
        "_aggregator": "0xFa49d3bf6Db9ac1aFB8836eEc64Da0e111d0c8e6",
        "_tags": [
          "governance"
        ]
      },
      {
        "_symbol": "snx",
        "_address": "0x96FE8a937b7775dF3d5935689a2752020F3E39eE",
        "_chainId": "11155111",
        "_aggregator": "0x96Eb955a0ca6453b33673Ab7a416Bc931696Ae57",
        "_tags": [
          "governance"
        ]
      },
      {
        "_symbol": "cake",
        "_address": "0x6f183E74FB60bB77329d9F896b1f705F9F17Cc68",
        "_chainId": "11155111",
        "_aggregator": "0x2238c422917636e71F0b79643556865Ed05F5B4B",
        "_tags": [
          "governance"
        ]
      },
      {
        "_symbol": "crv",
        "_address": "0x52D90Fb98e99142F2f8f40Cf1C38755Cd779Bb55",
        "_chainId": "11155111",
        "_aggregator": "0x644Bc06b7e4b3422a8f4E8108F50Aa8dB2a3d3F6",
        "_tags": [
          "governance"
        ]
      },
      {
        "_symbol": "ens",
        "_address": "0x45f9c02617dF6D1c75d5a9259D7BE941B3Cbe6bb",
        "_chainId": "11155111",
        "_aggregator": "0x75EC4640149086099f64b0bdec3906FE0A3e722c",
        "_tags": [
          "governance"
        ]
      },
      {
        "_symbol": "zrx",
        "_address": "0xA2fbE4BC90Bcef9Eb38FbD7EDD8A4cFd0C1CE6c1",
        "_chainId": "11155111",
        "_aggregator": "0xa7191Dc6a118bbcA51E50Ee02E836E7Fb801d607",
        "_tags": [
          "governance"
        ]
      },
      {
        "_symbol": "amp",
        "_address": "0x01b9f082F3f67fA334F7EB0bA236C7ce05086EFB",
        "_chainId": "11155111",
        "_aggregator": "0x3d3464FFfe0CB565E5776C9931C1099D9E54C921",
        "_tags": [
          "governance"
        ]
      },
      {
        "_symbol": "comp",
        "_address": "0x1745A6e812CD39FFa7542214B2D3a4D864F83eaB",
        "_chainId": "11155111",
        "_aggregator": "0x7716D49E0d1d1AFbF593C04edCB8541E96D439b9",
        "_tags": [
          "governance"
        ]
      },
      {
        "_symbol": "yfi",
        "_address": "0x2e8B93D6cB791C28777E86Ec4c7e663DDF1B7225",
        "_chainId": "11155111",
        "_aggregator": "0x0CC0Fc50BA7E459C061eF7Af9826e8Dbbb17d3Ce",
        "_tags": [
          "governance"
        ]
      }
    ],
    "0x6F48ed8Ba8aae013Ba46a6c4088BA553ef7AC5Ed",
    "0x3E842E3A79A00AFdd03B52390B1caC6306Ea257E",
    {
      "_timeWindow": 60,
      "_sampleSize": 30,
      "_bribeUnit": "50000000000000000"
    }
  ],
  "numDeployments": 3,
  "solcInputHash": "abd2e909e0063fda2cd60466948d04e6",
  "bytecode": "0x60a06040523480156200001157600080fd5b50604051620035a4380380620035a483398101604081905262000034916200060b565b816001600160a01b03811662000064576040516335fdcccd60e21b81526000600482015260240160405180910390fd5b60601b6001600160601b0319166080526020810151600c8190558151600d81905562000091919062000879565b600e556040810151601455600280546001600160a01b0319166001600160a01b03851617905560005b84518110156200030e576000858281518110620000e757634e487b7160e01b600052603260045260246000fd5b602090810291909101810151825460018101845560009384529282902081518051929460040290910192620001229284929091019062000319565b50602082810151600183018054604086015163ffffffff16600160a01b026001600160c01b03199091166001600160a01b03938416171790556060840151600284018054919092166001600160a01b03199190911617905560808301518051620001939260038501920190620003a8565b5050506004858281518110620001b957634e487b7160e01b600052603260045260246000fd5b6020908102919091018101515182546001810184556000938452928290208151620001ee949190910192919091019062000319565b508060038683815181106200021357634e487b7160e01b600052603260045260246000fd5b6020026020010151600001516040516200022e9190620007d7565b90815260200160405180910390208190555060088582815181106200026357634e487b7160e01b600052603260045260246000fd5b6020026020010151602001516001600160a01b03166318160ddd6040518163ffffffff1660e01b815260040160206040518083038186803b158015620002a857600080fd5b505afa158015620002bd573d6000803e3d6000fd5b505050506040513d601f19601f82011682018060405250810190620002e39190620007be565b815460018101835560009283526020909220909101558062000305816200090a565b915050620000ba565b505050505062000948565b8280546200032790620008cd565b90600052602060002090601f0160209004810192826200034b576000855562000396565b82601f106200036657805160ff191683800117855562000396565b8280016001018555821562000396579182015b828111156200039657825182559160200191906001019062000379565b50620003a492915062000408565b5090565b828054828255906000526020600020908101928215620003fa579160200282015b82811115620003fa5782518051620003e991849160209091019062000319565b5091602001919060010190620003c9565b50620003a49291506200041f565b5b80821115620003a4576000815560010162000409565b80821115620003a457600062000436828262000440565b506001016200041f565b5080546200044e90620008cd565b6000825580601f106200045f575050565b601f0160209004906000526020600020908101906200047f919062000408565b50565b80516001600160a01b03811681146200049a57600080fd5b919050565b600082601f830112620004b0578081fd5b81516020620004c9620004c38362000853565b62000820565b80838252828201915082860187848660051b8901011115620004e9578586fd5b855b858110156200052e5781516001600160401b038111156200050a578788fd5b6200051a8a87838c01016200053b565b8552509284019290840190600101620004eb565b5090979650505050505050565b600082601f8301126200054c578081fd5b81516001600160401b0381111562000568576200056862000932565b6200057d601f8201601f191660200162000820565b81815284602083860101111562000592578283fd5b620005a58260208301602087016200089a565b949350505050565b600060608284031215620005bf578081fd5b604051606081016001600160401b0381118282101715620005e457620005e462000932565b80604052508091508251815260208301516020820152604083015160408201525092915050565b60008060008060c0858703121562000621578384fd5b84516001600160401b0381111562000637578485fd5b86601f828801011262000648578485fd5b808601516200065b620004c38262000853565b808282526020820191506020848a01018a60208560051b878d010101111562000682578889fd5b885b848110156200077b5781516001600160401b03811115620006a3578a8bfd5b8b87010160a0818e03601f19011215620006bb578a8bfd5b620006c5620007f5565b60208201516001600160401b03811115620006de578c8dfd5b620006ef8f6020838601016200053b565b825250620007006040830162000482565b6020820152606082015163ffffffff811681146200071c578c8dfd5b60408201526200072f6080830162000482565b606082015260a08201516001600160401b038111156200074d578c8dfd5b6200075e8f6020838601016200049f565b608083015250855250602093840193919091019060010162000684565b505080975050505050620007926020860162000482565b9250620007a26040860162000482565b9150620007b38660608701620005ad565b905092959194509250565b600060208284031215620007d0578081fd5b5051919050565b60008251620007eb8184602087016200089a565b9190910192915050565b60405160a081016001600160401b03811182821017156200081a576200081a62000932565b60405290565b604051601f8201601f191681016001600160401b03811182821017156200084b576200084b62000932565b604052919050565b60006001600160401b038211156200086f576200086f62000932565b5060051b60200190565b6000826200089557634e487b7160e01b81526012600452602481fd5b500490565b60005b83811015620008b75781810151838201526020016200089d565b83811115620008c7576000848401525b50505050565b600181811c90821680620008e257607f821691505b602082108114156200090457634e487b7160e01b600052602260045260246000fd5b50919050565b60006000198214156200092b57634e487b7160e01b81526011600452602481fd5b5060010190565b634e487b7160e01b600052604160045260246000fd5b60805160601c612c366200096e600039600081816104a1015261198d0152612c366000f3fe608060405234801561001057600080fd5b50600436106101f05760003560e01c806375ffdf5d1161010f578063bff349e7116100a2578063e1bbd9db11610071578063e1bbd9db1461060c578063eaeca5111461061f578063f156ebf514610627578063f7df834e1461063057600080fd5b8063bff349e71461051e578063cc33c8751461055c578063cf82f7671461057f578063d440b4581461060357600080fd5b8063b0f479a1116100de578063b0f479a11461049f578063b547eccf146104c5578063b54fa474146104f0578063b834f6fb1461050357600080fd5b806375ffdf5d1461045657806385572ffb146104695780639a8a05921461047c5780639ec3cd031461048c57600080fd5b80633382743811610187578063685c180011610156578063685c1800146103c857806369d7273d146103db57806369e3e4cd146104235780636e7ddea81461043657600080fd5b806333827438146103595780635dc55ac21461038457806365c3048e146103975780636703a8da146103c057600080fd5b80630f45ad43116101c35780630f45ad431461029b57806316ee5b04146102c8578063193e795e146102db5780631e5ba3d9146102ee57600080fd5b806301ffc9a7146101f557806304c2320b1461021d5780630713051d1461025657806309e74fef14610269575b600080fd5b61020861020336600461250d565b610677565b60405190151581526020015b60405180910390f35b61024861022b366004612535565b805160208183018101805160038252928201919093012091525481565b604051908152602001610214565b6102486102643660046126fb565b610688565b6102996102773660046123e6565b600780546001600160a01b0319166001600160a01b0392909216919091179055565b005b6015546102b390640100000000900463ffffffff1681565b60405163ffffffff9091168152602001610214565b6102486102d636600461256f565b6106a9565b6102486102e93660046126fb565b6106e9565b601654601754601854610320926001600160a01b039081169290811691600160a01b9091046001600160401b03169084565b604080516001600160a01b0395861681529490931660208501526001600160401b03909116918301919091526060820152608001610214565b60025461036c906001600160a01b031681565b6040516001600160a01b039091168152602001610214565b61024861039236600461272b565b6106f9565b61036c6103a5366004612784565b6019602052600090815260409020546001600160a01b031681565b610299610715565b60075461036c906001600160a01b031681565b6103ee6103e93660046126fb565b610987565b604080516001600160a01b039095168552602085019390935263ffffffff909116918301919091526060820152608001610214565b610299610431366004612457565b6109d1565b6104496104443660046126fb565b61128a565b60405161021491906128fb565b6102086104643660046124b7565b611336565b6102996104773660046125b1565b611982565b6015546102b39063ffffffff1681565b6103ee61049a3660046126fb565b6119de565b7f000000000000000000000000000000000000000000000000000000000000000061036c565b6102486104d3366004612535565b805160208183018101805160128252928201919093012091525481565b6102486104fe3660046126fb565b6119ee565b601554640100000000810463ffffffff908116911614610208565b61029961052c36600461274c565b6015805463ffffffff9283166401000000000267ffffffffffffffff199091169290931691909117919091179055565b61056f61056a3660046126fb565b6119fe565b604051610214949392919061290e565b61029961058d366004612409565b604080516080810182526001600160a01b0395861680825294909516602086018190526001600160401b03939093169085018190526060909401819052601680546001600160a01b031916909317909255601780546001600160e01b031916909117600160a01b90930292909217909155601855565b61024860145481565b61024861061a3660046126fb565b611adb565b610299611aeb565b61024860135481565b61029961063e36600461279e565b6001600160401b0391909116600090815260196020526040902080546001600160a01b0319166001600160a01b03909216919091179055565b600061068282611cf0565b92915050565b6009818154811061069857600080fd5b600091825260209091200154905081565b815160208184018101805160118252928201918501919091209190528054829081106106d457600080fd5b90600052602060002001600091509150505481565b6010818154811061069857600080fd5b600b60205281600052604060002081815481106106d457600080fd5b60005b60005481101561098457600d54600a828154811061074657634e487b7160e01b600052603260045260246000fd5b90600052602060002001544261075c9190612a68565b1061097257600254600080546001600160a01b03909216916361566a3e91908490811061079957634e487b7160e01b600052603260045260246000fd5b600091825260209091206004918202016001015460405160e084901b6001600160e01b03191681526001600160a01b039091169181019190915260240160206040518083038186803b1580156107ee57600080fd5b505afa158015610802573d6000803e3d6000fd5b505050506040513d601f19601f8201168201806040525081019061082691906126d4565b6001600160801b03166009828154811061085057634e487b7160e01b600052603260045260246000fd5b90600052602060002001819055506000818154811061087f57634e487b7160e01b600052603260045260246000fd5b906000526020600020906004020160010160009054906101000a90046001600160a01b03166001600160a01b03166318160ddd6040518163ffffffff1660e01b815260040160206040518083038186803b1580156108dc57600080fd5b505afa1580156108f0573d6000803e3d6000fd5b505050506040513d601f19601f820116820180604052508101906109149190612713565b6008828154811061093557634e487b7160e01b600052603260045260246000fd5b906000526020600020018190555042600a828154811061096557634e487b7160e01b600052603260045260246000fd5b6000918252602090912001555b8061097c81612b92565b915050610718565b50565b6005818154811061099757600080fd5b600091825260209091206004909102018054600182015460028301546003909301546001600160a01b0390921693509163ffffffff169084565b60005b600054811015610c56576015546000805463ffffffff9092169183908110610a0c57634e487b7160e01b600052603260045260246000fd5b6000918252602090912060049091020160010154600160a01b900463ffffffff161415610c4457600254600080546001600160a01b03909216916361566a3e919084908110610a6b57634e487b7160e01b600052603260045260246000fd5b600091825260209091206004918202016001015460405160e084901b6001600160e01b03191681526001600160a01b039091169181019190915260240160206040518083038186803b158015610ac057600080fd5b505afa158015610ad4573d6000803e3d6000fd5b505050506040513d601f19601f82011682018060405250810190610af891906126d4565b6001600160801b031660098281548110610b2257634e487b7160e01b600052603260045260246000fd5b906000526020600020018190555060008181548110610b5157634e487b7160e01b600052603260045260246000fd5b906000526020600020906004020160010160009054906101000a90046001600160a01b03166001600160a01b03166318160ddd6040518163ffffffff1660e01b815260040160206040518083038186803b158015610bae57600080fd5b505afa158015610bc2573d6000803e3d6000fd5b505050506040513d601f19601f82011682018060405250810190610be69190612713565b60088281548110610c0757634e487b7160e01b600052603260045260246000fd5b906000526020600020018190555042600a8281548110610c3757634e487b7160e01b600052603260045260246000fd5b6000918252602090912001555b80610c4e81612b92565b9150506109d4565b50601554640100000000810463ffffffff90811691161415610f7b5760005b600854811015610df55760005b600054811015610de25760068281548110610cad57634e487b7160e01b600052603260045260246000fd5b6000918252602082206004909102015481546001600160a01b03909116919083908110610cea57634e487b7160e01b600052603260045260246000fd5b60009182526020909120600160049092020101546001600160a01b03161415610dd05760068281548110610d2e57634e487b7160e01b600052603260045260246000fd5b90600052602060002090600402016001015460088281548110610d6157634e487b7160e01b600052603260045260246000fd5b906000526020600020018190555060058281548110610d9057634e487b7160e01b600052603260045260246000fd5b906000526020600020906004020160030154600a8281548110610dc357634e487b7160e01b600052603260045260246000fd5b6000918252602090912001555b80610dda81612b92565b915050610c82565b5080610ded81612b92565b915050610c75565b5060005b600954811015610f795760005b600054811015610f665760058281548110610e3157634e487b7160e01b600052603260045260246000fd5b6000918252602082206004909102015481546001600160a01b03909116919083908110610e6e57634e487b7160e01b600052603260045260246000fd5b60009182526020909120600160049092020101546001600160a01b03161415610f545760058281548110610eb257634e487b7160e01b600052603260045260246000fd5b90600052602060002090600402016001015460098281548110610ee557634e487b7160e01b600052603260045260246000fd5b906000526020600020018190555060058281548110610f1457634e487b7160e01b600052603260045260246000fd5b906000526020600020906004020160030154600a8281548110610f4757634e487b7160e01b600052603260045260246000fd5b6000918252602090912001555b80610f5e81612b92565b915050610e06565b5080610f7181612b92565b915050610df9565b505b601554640100000000810463ffffffff90811691161461128657600080546001600160401b03811115610fbe57634e487b7160e01b600052604160045260246000fd5b60405190808252806020026020018201604052801561101057816020015b604080516080810182526000808252602080830182905292820181905260608201528252600019909201910181610fdc5790505b5060008054919250906001600160401b0381111561103e57634e487b7160e01b600052604160045260246000fd5b60405190808252806020026020018201604052801561109057816020015b60408051608081018252600080825260208083018290529282018190526060820152825260001990920191018161105c5790505b50905060005b60005481101561128257600081815481106110c157634e487b7160e01b600052603260045260246000fd5b600091825260209091206001600490920201015460155463ffffffff908116600160a01b9092041614156112705760405180608001604052806000838154811061111b57634e487b7160e01b600052603260045260246000fd5b6000918252602091829020600160049092020101546001600160a01b03168252875191019087908490811061116057634e487b7160e01b600052603260045260246000fd5b602090810291909101810151825260155463ffffffff16908201524260409091015283518490839081106111a457634e487b7160e01b600052603260045260246000fd5b60200260200101819052506040518060800160405280600083815481106111db57634e487b7160e01b600052603260045260246000fd5b6000918252602091829020600160049092020101546001600160a01b03168252865191019086908490811061122057634e487b7160e01b600052603260045260246000fd5b602090810291909101810151825260155463ffffffff169082015242604090910152825183908390811061126457634e487b7160e01b600052603260045260246000fd5b60200260200101819052505b8061127a81612b92565b915050611096565b5050505b5050565b6004818154811061129a57600080fd5b9060005260206000200160009150905080546112b590612b57565b80601f01602080910402602001604051908101604052809291908181526020018280546112e190612b57565b801561132e5780601f106113035761010080835404028352916020019161132e565b820191906000526020600020905b81548152906001019060200180831161131157829003601f168201915b505050505081565b60408051600080825260208201808452825190209092909161135a91859101612844565b60405160208183030381529060405280519060200120146116045760005b60015481101561140457600181815481106113a357634e487b7160e01b600052603260045260246000fd5b600091825260208220600490910201906113bd8282611fbf565b6001820180546001600160c01b03191690556002820180546001600160a01b03191690556113ef600383016000611ff9565b505080806113fc90612b92565b915050611378565b5060005b6000548110156116025760005b6000828154811061143657634e487b7160e01b600052603260045260246000fd5b9060005260206000209060040201600301805490508110156115ef57836040516020016114639190612844565b604051602081830303815290604052805190602001206000838154811061149a57634e487b7160e01b600052603260045260246000fd5b906000526020600020906004020160030182815481106114ca57634e487b7160e01b600052603260045260246000fd5b906000526020600020016040516020016114e49190612860565b6040516020818303038152906040528051906020012014156115dd5760016000838154811061152357634e487b7160e01b600052603260045260246000fd5b6000918252602080832084546001810186559484529220600491820290920180549093909102909101908190839061155a90612b57565b611565929190612017565b506001828101805491830180546001600160a01b039384166001600160a01b03198083168217845593546001600160c01b031990921617600160a01b9182900463ffffffff169091021790556002808501549084018054919093169116179055600380830180546115d992840191906120a2565b5050505b806115e781612b92565b915050611415565b50806115fa81612b92565b915050611408565b505b60008060005b600186516116189190612a68565b8110156118ea57600092506000915060005b600b600088848151811061164e57634e487b7160e01b600052603260045260246000fd5b602002602001015181526020019081526020016000208054905081101561183157600887838151811061169157634e487b7160e01b600052603260045260246000fd5b6020026020010151815481106116b757634e487b7160e01b600052603260045260246000fd5b9060005260206000200154600b60008985815181106116e657634e487b7160e01b600052603260045260246000fd5b60200260200101518152602001908152602001600020828154811061171b57634e487b7160e01b600052603260045260246000fd5b90600052602060002001546117309190612a49565b61173a9085612a31565b935060088761174a846001612a31565b8151811061176857634e487b7160e01b600052603260045260246000fd5b60200260200101518154811061178e57634e487b7160e01b600052603260045260246000fd5b9060005260206000200154600b6000898560016117ab9190612a31565b815181106117c957634e487b7160e01b600052603260045260246000fd5b6020026020010151815260200190815260200160002082815481106117fe57634e487b7160e01b600052603260045260246000fd5b90600052602060002001546118139190612a49565b61181d9084612a31565b92508061182981612b92565b91505061162a565b506000831161185b5760405162461bcd60e51b815260040161185290612950565b60405180910390fd5b6000821161187b5760405162461bcd60e51b815260040161185290612950565b8183116118d85760405162461bcd60e51b815260206004820152602560248201527f496e64657841676772656761746f723a206f72646572206973206e6f7420636f6044820152641c9c9958dd60da1b6064820152608401611852565b806118e281612b92565b91505061160a565b50604080516000815260208101808352815190209161190b91879101612844565b604051602081830303815290604052805190602001201461195e57846011856040516119379190612844565b90815260200160405180910390209080519060200190611958929190612104565b50611977565b8451611971906010906020880190612104565b50426013555b506001949350505050565b336001600160a01b037f000000000000000000000000000000000000000000000000000000000000000016146119cd576040516335fdcccd60e21b8152336004820152602401611852565b6109846119d982612a7f565b611d26565b6006818154811061099757600080fd5b6008818154811061069857600080fd5b60008181548110611a0e57600080fd5b9060005260206000209060040201600091509050806000018054611a3190612b57565b80601f0160208091040260200160405190810160405280929190818152602001828054611a5d90612b57565b8015611aaa5780601f10611a7f57610100808354040283529160200191611aaa565b820191906000526020600020905b815481529060010190602001808311611a8d57829003601f168201915b50505050600183015460029093015491926001600160a01b0380821693600160a01b90920463ffffffff1692501684565b600a818154811061069857600080fd5b60005b600054811015611cb3576000808281548110611b1a57634e487b7160e01b600052603260045260246000fd5b906000526020600020906004020160020160009054906101000a90046001600160a01b03166001600160a01b031663feaf968c6040518163ffffffff1660e01b815260040160a06040518083038186803b158015611b7757600080fd5b505afa158015611b8b573d6000803e3d6000fd5b505050506040513d601f19601f82011682018060405250810190611baf91906127c9565b5050506000848152600b6020908152604082208054600181018255818452918320909101839055600c5486835290549294509092501015611c2c576000838152600b60205260409020805480611c1557634e487b7160e01b600052603160045260246000fd5b600190038181906000526020600020016000905590555b60005b6000848152600b6020526040902054811015611c9d576000848152600b60205260409020805482908110611c7357634e487b7160e01b600052603260045260246000fd5b906000526020600020015482611c899190612a31565b915080611c9581612b92565b915050611c2f565b5050508080611cab90612b92565b915050611aee565b5042600f5560145415611cee57601454604051339180156108fc02916000818181858888f19350505050158015610984573d6000803e3d6000fd5b565b60006001600160e01b031982166385572ffb60e01b148061068257506001600160e01b031982166301ffc9a760e01b1492915050565b60008160600151806020019051810190611d4091906125e8565b905060005b815151811015611e7c57600082600001518281518110611d7557634e487b7160e01b600052603260045260246000fd5b6020908102919091018101516005805460018101825560009190915281517f036b6384b5eca791c62761152d0c79bb0604c104a5fb6f4eb0703f3154bb3db0600490920291820180546001600160a01b0319166001600160a01b03909216919091179055918101517f036b6384b5eca791c62761152d0c79bb0604c104a5fb6f4eb0703f3154bb3db183015560408101517f036b6384b5eca791c62761152d0c79bb0604c104a5fb6f4eb0703f3154bb3db28301805463ffffffff191663ffffffff909216919091179055606001517f036b6384b5eca791c62761152d0c79bb0604c104a5fb6f4eb0703f3154bb3db3909101555080611e7481612b92565b915050611d45565b5060005b816020015151811015611fba57600082602001518281518110611eb357634e487b7160e01b600052603260045260246000fd5b6020908102919091018101516006805460018101825560009190915281517ff652222313e28459528d920b65115c16c04f3efc82aaedc97be59f3f377c0d3f600490920291820180546001600160a01b0319166001600160a01b03909216919091179055918101517ff652222313e28459528d920b65115c16c04f3efc82aaedc97be59f3f377c0d4083015560408101517ff652222313e28459528d920b65115c16c04f3efc82aaedc97be59f3f377c0d418301805463ffffffff191663ffffffff909216919091179055606001517ff652222313e28459528d920b65115c16c04f3efc82aaedc97be59f3f377c0d42909101555080611fb281612b92565b915050611e80565b505050565b508054611fcb90612b57565b6000825580601f10611fdb575050565b601f016020900490600052602060002090810190610984919061213f565b50805460008255906000526020600020908101906109849190612154565b82805461202390612b57565b90600052602060002090601f0160209004810192826120455760008555612092565b82601f106120565780548555612092565b8280016001018555821561209257600052602060002091601f016020900482015b82811115612092578254825591600101919060010190612077565b5061209e92915061213f565b5090565b8280548282559060005260206000209081019282156120f85760005260206000209182015b828111156120f85782829080546120dd90612b57565b6120e8929190612017565b50916001019190600101906120c7565b5061209e929150612154565b828054828255906000526020600020908101928215612092579160200282015b82811115612092578251825591602001919060010190612124565b5b8082111561209e5760008155600101612140565b8082111561209e5760006121688282611fbf565b50600101612154565b600082601f830112612181578081fd5b8135602061219661219183612a0e565b6129de565b80838252828201915082860187848660061b89010111156121b5578586fd5b855b858110156121fe57604080838b0312156121cf578788fd5b6121d7612994565b83356121e281612bd9565b81528387013587820152855293850193909101906001016121b7565b5090979650505050505050565b600082601f83011261221b578081fd5b8151602061222b61219183612a0e565b80838252828201915082860187848660071b890101111561224a578586fd5b855b858110156121fe5761225e898361233a565b8452928401926080919091019060010161224c565b600082601f830112612283578081fd5b8135602061229361219183612a0e565b80838252828201915082860187848660051b89010111156122b2578586fd5b855b858110156121fe578135845292840192908401906001016122b4565b600082601f8301126122e0578081fd5b81356001600160401b038111156122f9576122f9612bc3565b61230c601f8201601f19166020016129de565b818152846020838601011115612320578283fd5b816020850160208301379081016020019190915292915050565b60006080828403121561234b578081fd5b604051608081018181106001600160401b038211171561236d5761236d612bc3565b8060405250809150825161238081612bd9565b815260208381015190820152604083015161239a81612bee565b6040820152606092830151920191909152919050565b80356001600160401b03811681146123c757600080fd5b919050565b805169ffffffffffffffffffff811681146123c757600080fd5b6000602082840312156123f7578081fd5b813561240281612bd9565b9392505050565b6000806000806080858703121561241e578283fd5b843561242981612bd9565b9350602085013561243981612bd9565b9250612447604086016123b0565b9396929550929360600135925050565b60008060408385031215612469578182fd5b82356001600160401b038082111561247f578384fd5b61248b86838701612273565b935060208501359150808211156124a0578283fd5b506124ad85828601612273565b9150509250929050565b600080604083850312156124c9578182fd5b82356001600160401b03808211156124df578384fd5b6124eb86838701612273565b93506020850135915080821115612500578283fd5b506124ad858286016122d0565b60006020828403121561251e578081fd5b81356001600160e01b031981168114612402578182fd5b600060208284031215612546578081fd5b81356001600160401b0381111561255b578182fd5b612567848285016122d0565b949350505050565b60008060408385031215612581578182fd5b82356001600160401b03811115612596578283fd5b6125a2858286016122d0565b95602094909401359450505050565b6000602082840312156125c2578081fd5b81356001600160401b038111156125d7578182fd5b820160a08185031215612402578182fd5b600060208083850312156125fa578182fd5b82516001600160401b0380821115612610578384fd5b9084019060408287031215612623578384fd5b61262b612994565b825182811115612639578586fd5b8301601f81018813612649578586fd5b805161265761219182612a0e565b8082825287820191508784018b898560071b870101111561267657898afd5b8994505b838510156126a15761268c8c8261233a565b8352600194909401939188019160800161267a565b50845250505082840151828111156126b7578586fd5b6126c38882860161220b565b948201949094529695505050505050565b6000602082840312156126e5578081fd5b81516001600160801b0381168114612402578182fd5b60006020828403121561270c578081fd5b5035919050565b600060208284031215612724578081fd5b5051919050565b6000806040838503121561273d578182fd5b50508035926020909101359150565b6000806040838503121561275e578182fd5b823561276981612bee565b9150602083013561277981612bee565b809150509250929050565b600060208284031215612795578081fd5b612402826123b0565b600080604083850312156127b0578182fd5b6127b9836123b0565b9150602083013561277981612bd9565b600080600080600060a086880312156127e0578283fd5b6127e9866123cc565b945060208601519350604086015192506060860151915061280c608087016123cc565b90509295509295909350565b60008151808452612830816020860160208601612b27565b601f01601f19169290920160200192915050565b60008251612856818460208701612b27565b9190910192915050565b600080835482600182811c91508083168061287c57607f831692505b602080841082141561289c57634e487b7160e01b87526022600452602487fd5b8180156128b057600181146128c1576128ed565b60ff198616895284890196506128ed565b60008a815260209020885b868110156128e55781548b8201529085019083016128cc565b505084890196505b509498975050505050505050565b6020815260006124026020830184612818565b6080815260006129216080830187612818565b6001600160a01b03958616602084015263ffffffff949094166040830152509216606090920191909152919050565b60208082526024908201527f496e64657841676772656761746f723a20546f6b656e2076616c7565206973206040820152637a65726f60e01b606082015260800190565b604080519081016001600160401b03811182821017156129b6576129b6612bc3565b60405290565b60405160a081016001600160401b03811182821017156129b6576129b6612bc3565b604051601f8201601f191681016001600160401b0381118282101715612a0657612a06612bc3565b604052919050565b60006001600160401b03821115612a2757612a27612bc3565b5060051b60200190565b60008219821115612a4457612a44612bad565b500190565b6000816000190483118215151615612a6357612a63612bad565b500290565b600082821015612a7a57612a7a612bad565b500390565b600060a08236031215612a90578081fd5b612a986129bc565b82358152612aa8602084016123b0565b602082015260408301356001600160401b0380821115612ac6578384fd5b612ad2368387016122d0565b60408401526060850135915080821115612aea578384fd5b612af6368387016122d0565b60608401526080850135915080821115612b0e578384fd5b50612b1b36828601612171565b60808301525092915050565b60005b83811015612b42578181015183820152602001612b2a565b83811115612b51576000848401525b50505050565b600181811c90821680612b6b57607f821691505b60208210811415612b8c57634e487b7160e01b600052602260045260246000fd5b50919050565b6000600019821415612ba657612ba6612bad565b5060010190565b634e487b7160e01b600052601160045260246000fd5b634e487b7160e01b600052604160045260246000fd5b6001600160a01b038116811461098457600080fd5b63ffffffff8116811461098457600080fdfea26469706673582212201d525d9618f673ac1eaf434c9cd40f66f1dcc69919e4eb24d0e65bf4bd38581d64736f6c63430008040033",
  "devdoc": {
    "kind": "dev",
    "methods": {
      "ccipReceive((bytes32,uint64,bytes,bytes,(address,uint256)[]))": {
        "details": "Note ensure you check the msg.sender is the OffRampRouter",
        "params": {
          "message": "CCIP Message"
        }
      },
      "getRouter()": {
        "returns": {
          "_0": "CCIP router address"
        }
      },
      "supportsInterface(bytes4)": {
        "details": "Should indicate whether the contract implements IAny2EVMMessageReceiver e.g. return interfaceId == type(IAny2EVMMessageReceiver).interfaceId || interfaceId == type(IERC165).interfaceId This allows CCIP to check if ccipReceive is available before calling it. If this returns false or reverts, only tokens are transferred to the receiver. If this returns true, tokens are transferred and ccipReceive is called atomically. Additionally, if the receiver address does not have code associated with it at the time of execution (EXTCODESIZE returns 0), only tokens will be transferred.",
        "params": {
          "interfaceId": "The interfaceId to check"
        },
        "returns": {
          "_0": "true if the interfaceId is supported"
        }
      }
    },
    "version": 1
  },
  "userdoc": {
    "kind": "user",
    "methods": {
      "ccipReceive((bytes32,uint64,bytes,bytes,(address,uint256)[]))": {
        "notice": "Called by the Router to deliver a message. If this reverts, any token transfers also revert. The message will move to a FAILED state and become available for manual execution."
      },
      "getRouter()": {
        "notice": "Return the current router"
      },
      "supportsInterface(bytes4)": {
        "notice": "IERC165 supports an interfaceId"
      }
    },
    "version": 1
  },
  "storageLayout": {
    "storage": [
      {
        "astId": 3406,
        "contract": "contracts/IndexAggreagtor.sol:IndexAggregator",
        "label": "tokenInfo",
        "offset": 0,
        "slot": "0",
        "type": "t_array(t_struct(TokenInfo)3357_storage)dyn_storage"
      },
      {
        "astId": 3410,
        "contract": "contracts/IndexAggreagtor.sol:IndexAggregator",
        "label": "tmpTokens",
        "offset": 0,
        "slot": "1",
        "type": "t_array(t_struct(TokenInfo)3357_storage)dyn_storage"
      },
      {
        "astId": 3413,
        "contract": "contracts/IndexAggreagtor.sol:IndexAggregator",
        "label": "liquidityManager",
        "offset": 0,
        "slot": "2",
        "type": "t_contract(LiquidityManager)4755"
      },
      {
        "astId": 3417,
        "contract": "contracts/IndexAggreagtor.sol:IndexAggregator",
        "label": "tokens",
        "offset": 0,
        "slot": "3",
        "type": "t_mapping(t_string_memory_ptr,t_uint256)"
      },
      {
        "astId": 3420,
        "contract": "contracts/IndexAggreagtor.sol:IndexAggregator",
        "label": "tokenSymbols",
        "offset": 0,
        "slot": "4",
        "type": "t_array(t_string_storage)dyn_storage"
      },
      {
        "astId": 3424,
        "contract": "contracts/IndexAggreagtor.sol:IndexAggregator",
        "label": "liquidityMessages",
        "offset": 0,
        "slot": "5",
        "type": "t_array(t_struct(LiquidityMessage)3366_storage)dyn_storage"
      },
      {
        "astId": 3428,
        "contract": "contracts/IndexAggreagtor.sol:IndexAggregator",
        "label": "supplyMessages",
        "offset": 0,
        "slot": "6",
        "type": "t_array(t_struct(SupplyMessage)3375_storage)dyn_storage"
      },
      {
        "astId": 3431,
        "contract": "contracts/IndexAggreagtor.sol:IndexAggregator",
        "label": "taggingVerifier",
        "offset": 0,
        "slot": "7",
        "type": "t_contract(TaggingVerifier)5033"
      },
      {
        "astId": 3434,
        "contract": "contracts/IndexAggreagtor.sol:IndexAggregator",
        "label": "totalSupplies",
        "offset": 0,
        "slot": "8",
        "type": "t_array(t_uint256)dyn_storage"
      },
      {
        "astId": 3437,
        "contract": "contracts/IndexAggreagtor.sol:IndexAggregator",
        "label": "liquidities",
        "offset": 0,
        "slot": "9",
        "type": "t_array(t_uint256)dyn_storage"
      },
      {
        "astId": 3440,
        "contract": "contracts/IndexAggreagtor.sol:IndexAggregator",
        "label": "tokenParamsTimestampUpdates",
        "offset": 0,
        "slot": "10",
        "type": "t_array(t_uint256)dyn_storage"
      },
      {
        "astId": 3445,
        "contract": "contracts/IndexAggreagtor.sol:IndexAggregator",
        "label": "movingAverage",
        "offset": 0,
        "slot": "11",
        "type": "t_mapping(t_uint256,t_array(t_uint256)dyn_storage)"
      },
      {
        "astId": 3447,
        "contract": "contracts/IndexAggreagtor.sol:IndexAggregator",
        "label": "sampleSize",
        "offset": 0,
        "slot": "12",
        "type": "t_uint256"
      },
      {
        "astId": 3449,
        "contract": "contracts/IndexAggreagtor.sol:IndexAggregator",
        "label": "timeWindow",
        "offset": 0,
        "slot": "13",
        "type": "t_uint256"
      },
      {
        "astId": 3451,
        "contract": "contracts/IndexAggreagtor.sol:IndexAggregator",
        "label": "samplingFrequency",
        "offset": 0,
        "slot": "14",
        "type": "t_uint256"
      },
      {
        "astId": 3453,
        "contract": "contracts/IndexAggreagtor.sol:IndexAggregator",
        "label": "lastSampleTime",
        "offset": 0,
        "slot": "15",
        "type": "t_uint256"
      },
      {
        "astId": 3456,
        "contract": "contracts/IndexAggreagtor.sol:IndexAggregator",
        "label": "lastIndexOrder",
        "offset": 0,
        "slot": "16",
        "type": "t_array(t_uint256)dyn_storage"
      },
      {
        "astId": 3461,
        "contract": "contracts/IndexAggreagtor.sol:IndexAggregator",
        "label": "tagsIndexOrder",
        "offset": 0,
        "slot": "17",
        "type": "t_mapping(t_string_memory_ptr,t_array(t_uint256)dyn_storage)"
      },
      {
        "astId": 3465,
        "contract": "contracts/IndexAggreagtor.sol:IndexAggregator",
        "label": "tagsIndexTimestamp",
        "offset": 0,
        "slot": "18",
        "type": "t_mapping(t_string_memory_ptr,t_uint256)"
      },
      {
        "astId": 3467,
        "contract": "contracts/IndexAggreagtor.sol:IndexAggregator",
        "label": "lastIndexTimestamp",
        "offset": 0,
        "slot": "19",
        "type": "t_uint256"
      },
      {
        "astId": 3469,
        "contract": "contracts/IndexAggreagtor.sol:IndexAggregator",
        "label": "bribeUnit",
        "offset": 0,
        "slot": "20",
        "type": "t_uint256"
      },
      {
        "astId": 3471,
        "contract": "contracts/IndexAggreagtor.sol:IndexAggregator",
        "label": "chainId",
        "offset": 0,
        "slot": "21",
        "type": "t_uint32"
      },
      {
        "astId": 3473,
        "contract": "contracts/IndexAggreagtor.sol:IndexAggregator",
        "label": "mainChainId",
        "offset": 4,
        "slot": "21",
        "type": "t_uint32"
      },
      {
        "astId": 3476,
        "contract": "contracts/IndexAggreagtor.sol:IndexAggregator",
        "label": "chainLinkData",
        "offset": 0,
        "slot": "22",
        "type": "t_struct(ChainLinkData)3345_storage"
      },
      {
        "astId": 3480,
        "contract": "contracts/IndexAggreagtor.sol:IndexAggregator",
        "label": "chainSelectorIdToSidechainAddress",
        "offset": 0,
        "slot": "25",
        "type": "t_mapping(t_uint64,t_address)"
      }
    ],
    "types": {
      "t_address": {
        "encoding": "inplace",
        "label": "address",
        "numberOfBytes": "20"
      },
      "t_array(t_string_storage)dyn_storage": {
        "base": "t_string_storage",
        "encoding": "dynamic_array",
        "label": "string[]",
        "numberOfBytes": "32"
      },
      "t_array(t_struct(LiquidityMessage)3366_storage)dyn_storage": {
        "base": "t_struct(LiquidityMessage)3366_storage",
        "encoding": "dynamic_array",
        "label": "struct LiquidityMessage[]",
        "numberOfBytes": "32"
      },
      "t_array(t_struct(SupplyMessage)3375_storage)dyn_storage": {
        "base": "t_struct(SupplyMessage)3375_storage",
        "encoding": "dynamic_array",
        "label": "struct SupplyMessage[]",
        "numberOfBytes": "32"
      },
      "t_array(t_struct(TokenInfo)3357_storage)dyn_storage": {
        "base": "t_struct(TokenInfo)3357_storage",
        "encoding": "dynamic_array",
        "label": "struct TokenInfo[]",
        "numberOfBytes": "32"
      },
      "t_array(t_uint256)dyn_storage": {
        "base": "t_uint256",
        "encoding": "dynamic_array",
        "label": "uint256[]",
        "numberOfBytes": "32"
      },
      "t_bytes32": {
        "encoding": "inplace",
        "label": "bytes32",
        "numberOfBytes": "32"
      },
      "t_contract(LiquidityManager)4755": {
        "encoding": "inplace",
        "label": "contract LiquidityManager",
        "numberOfBytes": "20"
      },
      "t_contract(TaggingVerifier)5033": {
        "encoding": "inplace",
        "label": "contract TaggingVerifier",
        "numberOfBytes": "20"
      },
      "t_mapping(t_string_memory_ptr,t_array(t_uint256)dyn_storage)": {
        "encoding": "mapping",
        "key": "t_string_memory_ptr",
        "label": "mapping(string => uint256[])",
        "numberOfBytes": "32",
        "value": "t_array(t_uint256)dyn_storage"
      },
      "t_mapping(t_string_memory_ptr,t_uint256)": {
        "encoding": "mapping",
        "key": "t_string_memory_ptr",
        "label": "mapping(string => uint256)",
        "numberOfBytes": "32",
        "value": "t_uint256"
      },
      "t_mapping(t_uint256,t_array(t_uint256)dyn_storage)": {
        "encoding": "mapping",
        "key": "t_uint256",
        "label": "mapping(uint256 => uint256[])",
        "numberOfBytes": "32",
        "value": "t_array(t_uint256)dyn_storage"
      },
      "t_mapping(t_uint64,t_address)": {
        "encoding": "mapping",
        "key": "t_uint64",
        "label": "mapping(uint64 => address)",
        "numberOfBytes": "32",
        "value": "t_address"
      },
      "t_string_memory_ptr": {
        "encoding": "bytes",
        "label": "string",
        "numberOfBytes": "32"
      },
      "t_string_storage": {
        "encoding": "bytes",
        "label": "string",
        "numberOfBytes": "32"
      },
      "t_struct(ChainLinkData)3345_storage": {
        "encoding": "inplace",
        "label": "struct ChainLinkData",
        "members": [
          {
            "astId": 3338,
            "contract": "contracts/IndexAggreagtor.sol:IndexAggregator",
            "label": "router",
            "offset": 0,
            "slot": "0",
            "type": "t_address"
          },
          {
            "astId": 3340,
            "contract": "contracts/IndexAggreagtor.sol:IndexAggregator",
            "label": "link",
            "offset": 0,
            "slot": "1",
            "type": "t_address"
          },
          {
            "astId": 3342,
            "contract": "contracts/IndexAggreagtor.sol:IndexAggregator",
            "label": "currentChainSelectorId",
            "offset": 20,
            "slot": "1",
            "type": "t_uint64"
          },
          {
            "astId": 3344,
            "contract": "contracts/IndexAggreagtor.sol:IndexAggregator",
            "label": "keyHash",
            "offset": 0,
            "slot": "2",
            "type": "t_bytes32"
          }
        ],
        "numberOfBytes": "96"
      },
      "t_struct(LiquidityMessage)3366_storage": {
        "encoding": "inplace",
        "label": "struct LiquidityMessage",
        "members": [
          {
            "astId": 3359,
            "contract": "contracts/IndexAggreagtor.sol:IndexAggregator",
            "label": "token",
            "offset": 0,
            "slot": "0",
            "type": "t_address"
          },
          {
            "astId": 3361,
            "contract": "contracts/IndexAggreagtor.sol:IndexAggregator",
            "label": "liquidity",
            "offset": 0,
            "slot": "1",
            "type": "t_uint256"
          },
          {
            "astId": 3363,
            "contract": "contracts/IndexAggreagtor.sol:IndexAggregator",
            "label": "chainId",
            "offset": 0,
            "slot": "2",
            "type": "t_uint32"
          },
          {
            "astId": 3365,
            "contract": "contracts/IndexAggreagtor.sol:IndexAggregator",
            "label": "timestamp",
            "offset": 0,
            "slot": "3",
            "type": "t_uint256"
          }
        ],
        "numberOfBytes": "128"
      },
      "t_struct(SupplyMessage)3375_storage": {
        "encoding": "inplace",
        "label": "struct SupplyMessage",
        "members": [
          {
            "astId": 3368,
            "contract": "contracts/IndexAggreagtor.sol:IndexAggregator",
            "label": "token",
            "offset": 0,
            "slot": "0",
            "type": "t_address"
          },
          {
            "astId": 3370,
            "contract": "contracts/IndexAggreagtor.sol:IndexAggregator",
            "label": "supply",
            "offset": 0,
            "slot": "1",
            "type": "t_uint256"
          },
          {
            "astId": 3372,
            "contract": "contracts/IndexAggreagtor.sol:IndexAggregator",
            "label": "chainId",
            "offset": 0,
            "slot": "2",
            "type": "t_uint32"
          },
          {
            "astId": 3374,
            "contract": "contracts/IndexAggreagtor.sol:IndexAggregator",
            "label": "timestamp",
            "offset": 0,
            "slot": "3",
            "type": "t_uint256"
          }
        ],
        "numberOfBytes": "128"
      },
      "t_struct(TokenInfo)3357_storage": {
        "encoding": "inplace",
        "label": "struct TokenInfo",
        "members": [
          {
            "astId": 3347,
            "contract": "contracts/IndexAggreagtor.sol:IndexAggregator",
            "label": "_symbol",
            "offset": 0,
            "slot": "0",
            "type": "t_string_storage"
          },
          {
            "astId": 3349,
            "contract": "contracts/IndexAggreagtor.sol:IndexAggregator",
            "label": "_address",
            "offset": 0,
            "slot": "1",
            "type": "t_address"
          },
          {
            "astId": 3351,
            "contract": "contracts/IndexAggreagtor.sol:IndexAggregator",
            "label": "_chainId",
            "offset": 20,
            "slot": "1",
            "type": "t_uint32"
          },
          {
            "astId": 3353,
            "contract": "contracts/IndexAggreagtor.sol:IndexAggregator",
            "label": "_aggregator",
            "offset": 0,
            "slot": "2",
            "type": "t_address"
          },
          {
            "astId": 3356,
            "contract": "contracts/IndexAggreagtor.sol:IndexAggregator",
            "label": "_tags",
            "offset": 0,
            "slot": "3",
            "type": "t_array(t_string_storage)dyn_storage"
          }
        ],
        "numberOfBytes": "128"
      },
      "t_uint256": {
        "encoding": "inplace",
        "label": "uint256",
        "numberOfBytes": "32"
      },
      "t_uint32": {
        "encoding": "inplace",
        "label": "uint32",
        "numberOfBytes": "4"
      },
      "t_uint64": {
        "encoding": "inplace",
        "label": "uint64",
        "numberOfBytes": "8"
      }
    }
  }
}