{
  "address": "0x0CC0Fc50BA7E459C061eF7Af9826e8Dbbb17d3Ce",
  "abi": [
    {
      "inputs": [
        {
          "internalType": "int256",
          "name": "_price",
          "type": "int256"
        },
        {
          "internalType": "uint8",
          "name": "_decimals",
          "type": "uint8"
        }
      ],
      "stateMutability": "nonpayable",
      "type": "constructor"
    },
    {
      "inputs": [],
      "name": "decimals",
      "outputs": [
        {
          "internalType": "uint8",
          "name": "",
          "type": "uint8"
        }
      ],
      "stateMutability": "view",
      "type": "function"
    },
    {
      "inputs": [],
      "name": "description",
      "outputs": [
        {
          "internalType": "string",
          "name": "",
          "type": "string"
        }
      ],
      "stateMutability": "pure",
      "type": "function"
    },
    {
      "inputs": [
        {
          "internalType": "uint80",
          "name": "_roundId",
          "type": "uint80"
        }
      ],
      "name": "getRoundData",
      "outputs": [
        {
          "internalType": "uint80",
          "name": "roundId",
          "type": "uint80"
        },
        {
          "internalType": "int256",
          "name": "answer",
          "type": "int256"
        },
        {
          "internalType": "uint256",
          "name": "startedAt",
          "type": "uint256"
        },
        {
          "internalType": "uint256",
          "name": "updatedAt",
          "type": "uint256"
        },
        {
          "internalType": "uint80",
          "name": "answeredInRound",
          "type": "uint80"
        }
      ],
      "stateMutability": "pure",
      "type": "function"
    },
    {
      "inputs": [],
      "name": "latestRoundData",
      "outputs": [
        {
          "internalType": "uint80",
          "name": "roundId",
          "type": "uint80"
        },
        {
          "internalType": "int256",
          "name": "answer",
          "type": "int256"
        },
        {
          "internalType": "uint256",
          "name": "startedAt",
          "type": "uint256"
        },
        {
          "internalType": "uint256",
          "name": "updatedAt",
          "type": "uint256"
        },
        {
          "internalType": "uint80",
          "name": "answeredInRound",
          "type": "uint80"
        }
      ],
      "stateMutability": "view",
      "type": "function"
    },
    {
      "inputs": [],
      "name": "latestRoundedData",
      "outputs": [
        {
          "internalType": "uint80",
          "name": "roundId",
          "type": "uint80"
        },
        {
          "internalType": "int256",
          "name": "answer",
          "type": "int256"
        },
        {
          "internalType": "uint256",
          "name": "startedAt",
          "type": "uint256"
        },
        {
          "internalType": "uint256",
          "name": "updatedAt",
          "type": "uint256"
        },
        {
          "internalType": "uint80",
          "name": "answeredInRound",
          "type": "uint80"
        }
      ],
      "stateMutability": "nonpayable",
      "type": "function"
    },
    {
      "inputs": [
        {
          "internalType": "int256",
          "name": "_price",
          "type": "int256"
        }
      ],
      "name": "setPrice",
      "outputs": [],
      "stateMutability": "nonpayable",
      "type": "function"
    },
    {
      "inputs": [
        {
          "internalType": "int256[]",
          "name": "_prices",
          "type": "int256[]"
        }
      ],
      "name": "setPrices",
      "outputs": [],
      "stateMutability": "nonpayable",
      "type": "function"
    },
    {
      "inputs": [],
      "name": "version",
      "outputs": [
        {
          "internalType": "uint256",
          "name": "",
          "type": "uint256"
        }
      ],
      "stateMutability": "pure",
      "type": "function"
    }
  ],
  "transactionHash": "0xd35deb818a4d2251d6f2e08c63db2101030bf5c12324b0db34dc86b0be66932b",
  "args": [
    "74583200000000",
    10
  ],
  "numDeployments": 39,
  "solcInputHash": "2c007285faf9b4a97aafef1992660d50",
  "bytecode": "0x608060405234801561001057600080fd5b506040516104f23803806104f283398101604081905261002f9161004d565b6000919091556002805460ff191660ff909216919091179055610083565b6000806040838503121561006057600080fd5b82519150602083015160ff8116811461007857600080fd5b809150509250929050565b610460806100926000396000f3fe608060405234801561001057600080fd5b50600436106100885760003560e01c80639a6fc8f51161005b5780639a6fc8f5146101265780639f9d49e414610140578063f7a3080614610155578063feaf968c1461016857600080fd5b8063313ce5671461008d57806354fd4d50146100a75780637284e416146100b657806375631a2e146100e7575b600080fd5b60025460405160ff90911681526020015b60405180910390f35b6040516000815260200161009e565b604080518082018252600f81526e26b7b1b59020b3b3b932b3b0ba37b960891b6020820152905161009e9190610269565b6100ef610174565b6040805169ffffffffffffffffffff968716815260208101959095528401929092526060830152909116608082015260a00161009e565b6100ef6101343660046102b7565b90600090819081908190565b61015361014e366004610300565b6101f2565b005b6101536101633660046103be565b600055565b600080548180806100ef565b60008060008060008060018054905011156101dd57600180546101989082906103d7565b815481106101a8576101a86103fe565b6000918252602082200154905560018054806101c6576101c6610414565b600190038181906000526020600020016000905590555b50506000805490949093508492508291508190565b8051610205906001906020840190610209565b5050565b828054828255906000526020600020908101928215610244579160200282015b82811115610244578251825591602001919060010190610229565b50610250929150610254565b5090565b5b808211156102505760008155600101610255565b600060208083528351808285015260005b818110156102965785810183015185820160400152820161027a565b506000604082860101526040601f19601f8301168501019250505092915050565b6000602082840312156102c957600080fd5b813569ffffffffffffffffffff811681146102e357600080fd5b9392505050565b634e487b7160e01b600052604160045260246000fd5b6000602080838503121561031357600080fd5b823567ffffffffffffffff8082111561032b57600080fd5b818501915085601f83011261033f57600080fd5b813581811115610351576103516102ea565b8060051b604051601f19603f83011681018181108582111715610376576103766102ea565b60405291825284820192508381018501918883111561039457600080fd5b938501935b828510156103b257843584529385019392850192610399565b98975050505050505050565b6000602082840312156103d057600080fd5b5035919050565b818103818111156103f857634e487b7160e01b600052601160045260246000fd5b92915050565b634e487b7160e01b600052603260045260246000fd5b634e487b7160e01b600052603160045260246000fdfea2646970667358221220d6ec81a392e6b54fb3736abe2e0192f2a871814783eaac419586d4203d52cdb764736f6c63430008140033",
  "devdoc": {
    "kind": "dev",
    "methods": {},
    "version": 1
  },
  "userdoc": {
    "kind": "user",
    "methods": {},
    "version": 1
  },
  "storageLayout": {
    "storage": [
      {
        "astId": 5890,
        "contract": "contracts/MockAggregator.sol:MockAggregator",
        "label": "price",
        "offset": 0,
        "slot": "0",
        "type": "t_int256"
      },
      {
        "astId": 5893,
        "contract": "contracts/MockAggregator.sol:MockAggregator",
        "label": "prices",
        "offset": 0,
        "slot": "1",
        "type": "t_array(t_int256)dyn_storage"
      },
      {
        "astId": 5895,
        "contract": "contracts/MockAggregator.sol:MockAggregator",
        "label": "dec",
        "offset": 0,
        "slot": "2",
        "type": "t_uint8"
      }
    ],
    "types": {
      "t_array(t_int256)dyn_storage": {
        "base": "t_int256",
        "encoding": "dynamic_array",
        "label": "int256[]",
        "numberOfBytes": "32"
      },
      "t_int256": {
        "encoding": "inplace",
        "label": "int256",
        "numberOfBytes": "32"
      },
      "t_uint8": {
        "encoding": "inplace",
        "label": "uint8",
        "numberOfBytes": "1"
      }
    }
  }
}