{
  "address": "0x269Dd5344EA5B1fc79D5eB146a771e32D994F02C",
  "abi": [
    {
      "inputs": [
        {
          "internalType": "int256",
          "name": "_price",
          "type": "int256"
        },
        {
          "internalType": "uint8",
          "name": "_decimals",
          "type": "uint8"
        }
      ],
      "stateMutability": "nonpayable",
      "type": "constructor"
    },
    {
      "inputs": [],
      "name": "decimals",
      "outputs": [
        {
          "internalType": "uint8",
          "name": "",
          "type": "uint8"
        }
      ],
      "stateMutability": "view",
      "type": "function"
    },
    {
      "inputs": [],
      "name": "description",
      "outputs": [
        {
          "internalType": "string",
          "name": "",
          "type": "string"
        }
      ],
      "stateMutability": "pure",
      "type": "function"
    },
    {
      "inputs": [
        {
          "internalType": "uint80",
          "name": "_roundId",
          "type": "uint80"
        }
      ],
      "name": "getRoundData",
      "outputs": [
        {
          "internalType": "uint80",
          "name": "roundId",
          "type": "uint80"
        },
        {
          "internalType": "int256",
          "name": "answer",
          "type": "int256"
        },
        {
          "internalType": "uint256",
          "name": "startedAt",
          "type": "uint256"
        },
        {
          "internalType": "uint256",
          "name": "updatedAt",
          "type": "uint256"
        },
        {
          "internalType": "uint80",
          "name": "answeredInRound",
          "type": "uint80"
        }
      ],
      "stateMutability": "pure",
      "type": "function"
    },
    {
      "inputs": [],
      "name": "latestRoundData",
      "outputs": [
        {
          "internalType": "uint80",
          "name": "roundId",
          "type": "uint80"
        },
        {
          "internalType": "int256",
          "name": "answer",
          "type": "int256"
        },
        {
          "internalType": "uint256",
          "name": "startedAt",
          "type": "uint256"
        },
        {
          "internalType": "uint256",
          "name": "updatedAt",
          "type": "uint256"
        },
        {
          "internalType": "uint80",
          "name": "answeredInRound",
          "type": "uint80"
        }
      ],
      "stateMutability": "view",
      "type": "function"
    },
    {
      "inputs": [],
      "name": "latestRoundedData",
      "outputs": [
        {
          "internalType": "uint80",
          "name": "roundId",
          "type": "uint80"
        },
        {
          "internalType": "int256",
          "name": "answer",
          "type": "int256"
        },
        {
          "internalType": "uint256",
          "name": "startedAt",
          "type": "uint256"
        },
        {
          "internalType": "uint256",
          "name": "updatedAt",
          "type": "uint256"
        },
        {
          "internalType": "uint80",
          "name": "answeredInRound",
          "type": "uint80"
        }
      ],
      "stateMutability": "nonpayable",
      "type": "function"
    },
    {
      "inputs": [
        {
          "internalType": "int256",
          "name": "_price",
          "type": "int256"
        }
      ],
      "name": "setPrice",
      "outputs": [],
      "stateMutability": "nonpayable",
      "type": "function"
    },
    {
      "inputs": [
        {
          "internalType": "int256[]",
          "name": "_prices",
          "type": "int256[]"
        }
      ],
      "name": "setPrices",
      "outputs": [],
      "stateMutability": "nonpayable",
      "type": "function"
    },
    {
      "inputs": [],
      "name": "version",
      "outputs": [
        {
          "internalType": "uint256",
          "name": "",
          "type": "uint256"
        }
      ],
      "stateMutability": "pure",
      "type": "function"
    }
  ],
  "transactionHash": "0xf157900b9121e9d0d0999aa89425d51ab52648cc869a6b2e5d0c81731b579355",
  "args": [
    "133000000",
    8
  ],
  "numDeployments": 11,
  "solcInputHash": "1fe2739ad9eab8ca0d9eca0e55cdb8f0",
  "bytecode": "0x608060405234801561001057600080fd5b506040516104e03803806104e083398101604081905261002f9161004d565b6000919091556002805460ff191660ff909216919091179055610081565b6000806040838503121561005f578182fd5b82519150602083015160ff81168114610076578182fd5b809150509250929050565b610450806100906000396000f3fe608060405234801561001057600080fd5b50600436106100885760003560e01c80639a6fc8f51161005b5780639a6fc8f5146101265780639f9d49e414610140578063f7a3080614610155578063feaf968c1461016857600080fd5b8063313ce5671461008d57806354fd4d50146100a75780637284e416146100b657806375631a2e146100e7575b600080fd5b60025460405160ff90911681526020015b60405180910390f35b6040516000815260200161009e565b604080518082018252600f81526e26b7b1b59020b3b3b932b3b0ba37b960891b6020820152905161009e919061038e565b6100ef610174565b6040805169ffffffffffffffffffff968716815260208101959095528401929092526060830152909116608082015260a00161009e565b6100ef61013436600461035d565b90600090819081908190565b61015361014e366004610285565b61020e565b005b610153610163366004610345565b600055565b600080548180806100ef565b60008060008060008060018054905011156101f957600180546101989082906103e1565b815481106101b657634e487b7160e01b600052603260045260246000fd5b6000918252602082200154905560018054806101e257634e487b7160e01b600052603160045260246000fd5b600190038181906000526020600020016000905590555b50506000805490949093508492508291508190565b8051610221906001906020840190610225565b5050565b828054828255906000526020600020908101928215610260579160200282015b82811115610260578251825591602001919060010190610245565b5061026c929150610270565b5090565b5b8082111561026c5760008155600101610271565b60006020808385031215610297578182fd5b823567ffffffffffffffff808211156102ae578384fd5b818501915085601f8301126102c1578384fd5b8135818111156102d3576102d3610404565b8060051b604051601f19603f830116810181811085821117156102f8576102f8610404565b604052828152858101935084860182860187018a1015610316578788fd5b8795505b8386101561033857803585526001959095019493860193860161031a565b5098975050505050505050565b600060208284031215610356578081fd5b5035919050565b60006020828403121561036e578081fd5b813569ffffffffffffffffffff81168114610387578182fd5b9392505050565b6000602080835283518082850152825b818110156103ba5785810183015185820160400152820161039e565b818111156103cb5783604083870101525b50601f01601f1916929092016040019392505050565b6000828210156103ff57634e487b7160e01b81526011600452602481fd5b500390565b634e487b7160e01b600052604160045260246000fdfea2646970667358221220af0899f641e239247017e305c7d8a919847497800e13d04e9351439fad12eb3564736f6c63430008040033",
  "devdoc": {
    "kind": "dev",
    "methods": {},
    "version": 1
  },
  "userdoc": {
    "kind": "user",
    "methods": {},
    "version": 1
  },
  "storageLayout": {
    "storage": [
      {
        "astId": 4951,
        "contract": "contracts/MockAggregator.sol:MockAggregator",
        "label": "price",
        "offset": 0,
        "slot": "0",
        "type": "t_int256"
      },
      {
        "astId": 4954,
        "contract": "contracts/MockAggregator.sol:MockAggregator",
        "label": "prices",
        "offset": 0,
        "slot": "1",
        "type": "t_array(t_int256)dyn_storage"
      },
      {
        "astId": 4956,
        "contract": "contracts/MockAggregator.sol:MockAggregator",
        "label": "dec",
        "offset": 0,
        "slot": "2",
        "type": "t_uint8"
      }
    ],
    "types": {
      "t_array(t_int256)dyn_storage": {
        "base": "t_int256",
        "encoding": "dynamic_array",
        "label": "int256[]",
        "numberOfBytes": "32"
      },
      "t_int256": {
        "encoding": "inplace",
        "label": "int256",
        "numberOfBytes": "32"
      },
      "t_uint8": {
        "encoding": "inplace",
        "label": "uint8",
        "numberOfBytes": "1"
      }
    }
  }
}