{
  "address": "0x6184DF20C2FD7515a102960C522C3431Fe0d8991",
  "abi": [
    {
      "inputs": [
        {
          "internalType": "string[]",
          "name": "_providersHashes",
          "type": "string[]"
        }
      ],
      "stateMutability": "nonpayable",
      "type": "constructor"
    },
    {
      "inputs": [],
      "name": "lastUpdateTimestamp",
      "outputs": [
        {
          "internalType": "uint256",
          "name": "",
          "type": "uint256"
        }
      ],
      "stateMutability": "view",
      "type": "function"
    },
    {
      "inputs": [
        {
          "internalType": "uint256",
          "name": "",
          "type": "uint256"
        }
      ],
      "name": "providersHashes",
      "outputs": [
        {
          "internalType": "string",
          "name": "",
          "type": "string"
        }
      ],
      "stateMutability": "view",
      "type": "function"
    },
    {
      "inputs": [],
      "name": "reclaimAddress",
      "outputs": [
        {
          "internalType": "address",
          "name": "",
          "type": "address"
        }
      ],
      "stateMutability": "view",
      "type": "function"
    },
    {
      "inputs": [
        {
          "internalType": "string",
          "name": "tokenSymbol",
          "type": "string"
        },
        {
          "internalType": "address",
          "name": "tokenAddress",
          "type": "address"
        }
      ],
      "name": "setTokenAddress",
      "outputs": [],
      "stateMutability": "nonpayable",
      "type": "function"
    },
    {
      "inputs": [
        {
          "internalType": "string",
          "name": "str",
          "type": "string"
        }
      ],
      "name": "split",
      "outputs": [
        {
          "internalType": "string[]",
          "name": "",
          "type": "string[]"
        }
      ],
      "stateMutability": "pure",
      "type": "function"
    },
    {
      "inputs": [
        {
          "internalType": "string",
          "name": "",
          "type": "string"
        }
      ],
      "name": "tokenSymbolToAddress",
      "outputs": [
        {
          "internalType": "address",
          "name": "",
          "type": "address"
        }
      ],
      "stateMutability": "view",
      "type": "function"
    },
    {
      "inputs": [
        {
          "internalType": "string",
          "name": "",
          "type": "string"
        },
        {
          "internalType": "uint256",
          "name": "",
          "type": "uint256"
        }
      ],
      "name": "tokenSymbolToVerifiedTags",
      "outputs": [
        {
          "internalType": "string",
          "name": "",
          "type": "string"
        }
      ],
      "stateMutability": "view",
      "type": "function"
    },
    {
      "inputs": [
        {
          "internalType": "string",
          "name": "",
          "type": "string"
        },
        {
          "internalType": "string",
          "name": "",
          "type": "string"
        }
      ],
      "name": "tokenSymbolToVerifiedTagsMap",
      "outputs": [
        {
          "internalType": "bool",
          "name": "",
          "type": "bool"
        }
      ],
      "stateMutability": "view",
      "type": "function"
    },
    {
      "inputs": [
        {
          "components": [
            {
              "components": [
                {
                  "internalType": "string",
                  "name": "provider",
                  "type": "string"
                },
                {
                  "internalType": "string",
                  "name": "parameters",
                  "type": "string"
                },
                {
                  "internalType": "string",
                  "name": "context",
                  "type": "string"
                }
              ],
              "internalType": "struct Claims.ClaimInfo",
              "name": "claimInfo",
              "type": "tuple"
            },
            {
              "components": [
                {
                  "components": [
                    {
                      "internalType": "bytes32",
                      "name": "identifier",
                      "type": "bytes32"
                    },
                    {
                      "internalType": "address",
                      "name": "owner",
                      "type": "address"
                    },
                    {
                      "internalType": "uint32",
                      "name": "timestampS",
                      "type": "uint32"
                    },
                    {
                      "internalType": "uint32",
                      "name": "epoch",
                      "type": "uint32"
                    }
                  ],
                  "internalType": "struct Claims.CompleteClaimData",
                  "name": "claim",
                  "type": "tuple"
                },
                {
                  "internalType": "bytes[]",
                  "name": "signatures",
                  "type": "bytes[]"
                }
              ],
              "internalType": "struct Claims.SignedClaim",
              "name": "signedClaim",
              "type": "tuple"
            }
          ],
          "internalType": "struct Reclaim.Proof",
          "name": "proof",
          "type": "tuple"
        },
        {
          "internalType": "string",
          "name": "tokenSymbolTag",
          "type": "string"
        }
      ],
      "name": "verifyProof",
      "outputs": [],
      "stateMutability": "nonpayable",
      "type": "function"
    }
  ],
  "transactionHash": "0xe4240d552d0eb8a2c78bb81e654de0a520d336984cfb3136d4716b2f4e337e37",
  "args": [
    [
      "0x9db032812994aabd3f3d25635ab22336a699bf3cf9b9ef84e547bbd8f7d0ae25"
    ]
  ],
  "numDeployments": 1,
  "solcInputHash": "29a899ca400dd8313a66bde15cf4477a",
  "bytecode": "0x60806040523480156200001157600080fd5b506040516200157538038062001575833981016040819052620000349162000271565b80516200004990600190602084019062000077565b5050600080546001600160a01b03191673d6534f52ceb3d0139b915bc0c3278a94687fa5c7179055620003c6565b828054828255906000526020600020908101928215620000c9579160200282015b82811115620000c95782518051620000b8918491602090910190620000db565b509160200191906001019062000098565b50620000d792915062000166565b5090565b828054620000e99062000373565b90600052602060002090601f0160209004810192826200010d576000855562000158565b82601f106200012857805160ff191683800117855562000158565b8280016001018555821562000158579182015b82811115620001585782518255916020019190600101906200013b565b50620000d792915062000187565b80821115620000d75760006200017d82826200019e565b5060010162000166565b5b80821115620000d7576000815560010162000188565b508054620001ac9062000373565b6000825580601f10620001bd575050565b601f016020900490600052602060002090810190620001dd919062000187565b50565b600082601f830112620001f1578081fd5b81516001600160401b038111156200020d576200020d620003b0565b602062000223601f8301601f1916820162000340565b828152858284870101111562000237578384fd5b835b838110156200025657858101830151828201840152820162000239565b838111156200026757848385840101525b5095945050505050565b6000602080838503121562000284578182fd5b82516001600160401b03808211156200029b578384fd5b818501915085601f830112620002af578384fd5b815181811115620002c457620002c4620003b0565b8060051b620002d585820162000340565b8281528581019085870183870188018b1015620002f0578889fd5b8893505b8484101562000332578051868111156200030c57898afd5b6200031c8c8a838b0101620001e0565b84525060019390930192918701918701620002f4565b509998505050505050505050565b604051601f8201601f191681016001600160401b03811182821017156200036b576200036b620003b0565b604052919050565b600181811c908216806200038857607f821691505b60208210811415620003aa57634e487b7160e01b600052602260045260246000fd5b50919050565b634e487b7160e01b600052604160045260246000fd5b61119f80620003d66000396000f3fe608060405234801561001057600080fd5b50600436106100935760003560e01c8063713696da11610066578063713696da146100fc578063aeade0e614610148578063bb00ae4a1461015b578063bcbc53911461017b578063e500cdc8146101d657600080fd5b806314bcec9f1461009857806317456e56146100b45780632a7b2c93146100c957806334dff439146100e9575b600080fd5b6100a160055481565b6040519081526020015b60405180910390f35b6100c76100c2366004610c10565b6101e9565b005b6100dc6100d7366004610bd6565b61022d565b6040516100ab9190610e96565b6100c76100f7366004610cfd565b61042d565b61013061010a366004610bd6565b80516020818301810180516002825292820191909301209152546001600160a01b031681565b6040516001600160a01b0390911681526020016100ab565b600054610130906001600160a01b031681565b61016e610169366004610cbb565b6107a2565b6040516100ab9190610ef7565b6101c6610189366004610c5b565b8151602081840181018051600482529282019482019490942091909352815180830184018051928152908401929093019190912091525460ff1681565b60405190151581526020016100ab565b61016e6101e4366004610e07565b61086a565b806002836040516101fa9190610e7a565b90815260405190819003602001902080546001600160a01b03929092166001600160a01b03199092169190911790555050565b606081600160005b82518110156102995782818151811061025e57634e487b7160e01b600052603260045260246000fd5b6020910101516001600160f81b031916600b60fa1b141561028757816102838161112c565b9250505b806102918161112c565b915050610235565b506000816001600160401b038111156102c257634e487b7160e01b600052604160045260246000fd5b6040519080825280602002602001820160405280156102f557816020015b60608152602001906001900390816102e05790505b5090506000606060005b85518110156103f55785818151811061032857634e487b7160e01b600052603260045260246000fd5b6020910101516001600160f81b031916600b60fa1b1415610394578184848151811061036457634e487b7160e01b600052603260045260246000fd5b6020026020010181905250828061037a9061112c565b9350506040518060200160405280600081525091506103e3565b818682815181106103b557634e487b7160e01b600052603260045260246000fd5b602001015160f81c60f81b6040516020016103d1929190610e4b565b60405160208183030381529060405291505b806103ed8161112c565b9150506102ff565b508083838151811061041757634e487b7160e01b600052603260045260246000fd5b6020908102919091010152509095945050505050565b6000546040516354b0734f60e11b81526001600160a01b039091169063a960e69e9061045d908590600401610f11565b60006040518083038186803b15801561047557600080fd5b505afa158015610489573d6000803e3d6000fd5b505050508060405160200161049e9190610e7a565b60408051601f19818403018152908290528051602091820120845182015190926104c89201610e7a565b60405160208183030381529060405280519060200120146105305760405162461bcd60e51b815260206004820152601d60248201527f496e76616c696420746f6b656e206c69737420706172616d657465727300000060448201526064015b60405180910390fd5b600061053b8261022d565b9050805160021461058e5760405162461bcd60e51b815260206004820152601d60248201527f496e76616c696420746f6b656e206c69737420706172616d65746572730000006044820152606401610527565b6003816000815181106105b157634e487b7160e01b600052603260045260246000fd5b60200260200101516040516105c69190610e7a565b90815260405190819003602001902054610661576040805160008082526020820190925290610605565b60608152602001906001900390816105f05790505b5060038260008151811061062957634e487b7160e01b600052603260045260246000fd5b602002602001015160405161063e9190610e7a565b9081526020016040518091039020908051906020019061065f929190610895565b505b60038160008151811061068457634e487b7160e01b600052603260045260246000fd5b60200260200101516040516106999190610e7a565b9081526020016040518091039020816001815181106106c857634e487b7160e01b600052603260045260246000fd5b602090810291909101810151825460018101845560009384529282902081516106fa94919091019291909101906108f2565b50600160048260008151811061072057634e487b7160e01b600052603260045260246000fd5b60200260200101516040516107359190610e7a565b90815260200160405180910390208260018151811061076457634e487b7160e01b600052603260045260246000fd5b60200260200101516040516107799190610e7a565b908152604051908190036020019020805491151560ff1990921691909117905550504260055550565b815160208184018101805160038252928201918501919091209190528054829081106107cd57600080fd5b906000526020600020016000915091505080546107e9906110f1565b80601f0160208091040260200160405190810160405280929190818152602001828054610815906110f1565b80156108625780601f1061083757610100808354040283529160200191610862565b820191906000526020600020905b81548152906001019060200180831161084557829003601f168201915b505050505081565b6001818154811061087a57600080fd5b9060005260206000200160009150905080546107e9906110f1565b8280548282559060005260206000209081019282156108e2579160200282015b828111156108e257825180516108d29184916020909101906108f2565b50916020019190600101906108b5565b506108ee929150610972565b5090565b8280546108fe906110f1565b90600052602060002090601f0160209004810192826109205760008555610966565b82601f1061093957805160ff1916838001178555610966565b82800160010185558215610966579182015b8281111561096657825182559160200191906001019061094b565b506108ee92915061098f565b808211156108ee57600061098682826109a4565b50600101610972565b5b808211156108ee5760008155600101610990565b5080546109b0906110f1565b6000825580601f106109c0575050565b601f0160209004906000526020600020908101906109de919061098f565b50565b80356001600160a01b03811681146109f857600080fd5b919050565b600082601f830112610a0d578081fd5b813560206001600160401b0380831115610a2957610a29611153565b8260051b610a38838201611091565b8481528381019087850183890186018a1015610a52578788fd5b8793505b86841015610a8f57803585811115610a6c578889fd5b610a7a8b88838d0101610a9c565b84525060019390930192918501918501610a56565b5098975050505050505050565b600082601f830112610aac578081fd5b81356001600160401b03811115610ac557610ac5611153565b610ad8601f8201601f1916602001611091565b818152846020838601011115610aec578283fd5b816020850160208301379081016020019190915292915050565b600081830360a0811215610b18578182fd5b604051604081016001600160401b038282108183111715610b3b57610b3b611153565b816040528294506080841215610b5057600080fd5b610b58611025565b935085358452610b6a602087016109e1565b6020850152610b7b60408701610bc2565b6040850152610b8c60608701610bc2565b606085015292825260808501359280841115610ba757600080fd5b5050610bb5858386016109fd565b6020820152505092915050565b803563ffffffff811681146109f857600080fd5b600060208284031215610be7578081fd5b81356001600160401b03811115610bfc578182fd5b610c0884828501610a9c565b949350505050565b60008060408385031215610c22578081fd5b82356001600160401b03811115610c37578182fd5b610c4385828601610a9c565b925050610c52602084016109e1565b90509250929050565b60008060408385031215610c6d578182fd5b82356001600160401b0380821115610c83578384fd5b610c8f86838701610a9c565b93506020850135915080821115610ca4578283fd5b50610cb185828601610a9c565b9150509250929050565b60008060408385031215610ccd578182fd5b82356001600160401b03811115610ce2578283fd5b610cee85828601610a9c565b95602094909401359450505050565b60008060408385031215610d0f578182fd5b82356001600160401b0380821115610d25578384fd5b9084019060408287031215610d38578384fd5b610d4061104d565b823582811115610d4e578586fd5b830160608189031215610d5f578586fd5b610d6761106f565b813584811115610d75578788fd5b610d818a828501610a9c565b825250602082013584811115610d95578788fd5b610da18a828501610a9c565b602083015250604082013584811115610db8578788fd5b610dc48a828501610a9c565b604083015250825250602083013582811115610dde578586fd5b610dea88828601610b06565b602083015250809450506020850135915080821115610ca4578283fd5b600060208284031215610e18578081fd5b5035919050565b60008151808452610e378160208601602086016110c1565b601f01601f19169290920160200192915050565b60008351610e5d8184602088016110c1565b6001600160f81b0319939093169190920190815260010192915050565b60008251610e8c8184602087016110c1565b9190910192915050565b6000602080830181845280855180835260408601915060408160051b8701019250838701855b82811015610eea57603f19888603018452610ed8858351610e1f565b94509285019290850190600101610ebc565b5092979650505050505050565b602081526000610f0a6020830184610e1f565b9392505050565b6000602080835283516040828501528051606080860152610f3560c0860182610e1f565b905082820151605f1980878403016080880152610f528383610e1f565b925060408401519350808784030160a08801525050610f718183610e1f565b83870151601f1987830301604080890191909152815180518452808701516001600160a01b0316848801528082015163ffffffff908116928501929092526060908101519091169083015284015160a06080830181905281519083018190529193508401915060c0600582901b840181019190840190865b818110156110175760bf19868503018352611005848651610e1f565b94870194935091860191600101610fe9565b509198975050505050505050565b604051608081016001600160401b038111828210171561104757611047611153565b60405290565b604080519081016001600160401b038111828210171561104757611047611153565b604051606081016001600160401b038111828210171561104757611047611153565b604051601f8201601f191681016001600160401b03811182821017156110b9576110b9611153565b604052919050565b60005b838110156110dc5781810151838201526020016110c4565b838111156110eb576000848401525b50505050565b600181811c9082168061110557607f821691505b6020821081141561112657634e487b7160e01b600052602260045260246000fd5b50919050565b600060001982141561114c57634e487b7160e01b81526011600452602481fd5b5060010190565b634e487b7160e01b600052604160045260246000fdfea2646970667358221220ae9e9d8ed2160035bf98e8c09c6d1e680f2dfdb7e999a94141a05bc4d9e4b70464736f6c63430008040033",
  "devdoc": {
    "kind": "dev",
    "methods": {},
    "version": 1
  },
  "userdoc": {
    "kind": "user",
    "methods": {},
    "version": 1
  },
  "storageLayout": {
    "storage": [
      {
        "astId": 5029,
        "contract": "contracts/TaggingVerifier.sol:TaggingVerifier",
        "label": "reclaimAddress",
        "offset": 0,
        "slot": "0",
        "type": "t_address"
      },
      {
        "astId": 5032,
        "contract": "contracts/TaggingVerifier.sol:TaggingVerifier",
        "label": "providersHashes",
        "offset": 0,
        "slot": "1",
        "type": "t_array(t_string_storage)dyn_storage"
      },
      {
        "astId": 5036,
        "contract": "contracts/TaggingVerifier.sol:TaggingVerifier",
        "label": "tokenSymbolToAddress",
        "offset": 0,
        "slot": "2",
        "type": "t_mapping(t_string_memory_ptr,t_address)"
      },
      {
        "astId": 5041,
        "contract": "contracts/TaggingVerifier.sol:TaggingVerifier",
        "label": "tokenSymbolToVerifiedTags",
        "offset": 0,
        "slot": "3",
        "type": "t_mapping(t_string_memory_ptr,t_array(t_string_storage)dyn_storage)"
      },
      {
        "astId": 5047,
        "contract": "contracts/TaggingVerifier.sol:TaggingVerifier",
        "label": "tokenSymbolToVerifiedTagsMap",
        "offset": 0,
        "slot": "4",
        "type": "t_mapping(t_string_memory_ptr,t_mapping(t_string_memory_ptr,t_bool))"
      },
      {
        "astId": 5049,
        "contract": "contracts/TaggingVerifier.sol:TaggingVerifier",
        "label": "lastUpdateTimestamp",
        "offset": 0,
        "slot": "5",
        "type": "t_uint256"
      }
    ],
    "types": {
      "t_address": {
        "encoding": "inplace",
        "label": "address",
        "numberOfBytes": "20"
      },
      "t_array(t_string_storage)dyn_storage": {
        "base": "t_string_storage",
        "encoding": "dynamic_array",
        "label": "string[]",
        "numberOfBytes": "32"
      },
      "t_bool": {
        "encoding": "inplace",
        "label": "bool",
        "numberOfBytes": "1"
      },
      "t_mapping(t_string_memory_ptr,t_address)": {
        "encoding": "mapping",
        "key": "t_string_memory_ptr",
        "label": "mapping(string => address)",
        "numberOfBytes": "32",
        "value": "t_address"
      },
      "t_mapping(t_string_memory_ptr,t_array(t_string_storage)dyn_storage)": {
        "encoding": "mapping",
        "key": "t_string_memory_ptr",
        "label": "mapping(string => string[])",
        "numberOfBytes": "32",
        "value": "t_array(t_string_storage)dyn_storage"
      },
      "t_mapping(t_string_memory_ptr,t_bool)": {
        "encoding": "mapping",
        "key": "t_string_memory_ptr",
        "label": "mapping(string => bool)",
        "numberOfBytes": "32",
        "value": "t_bool"
      },
      "t_mapping(t_string_memory_ptr,t_mapping(t_string_memory_ptr,t_bool))": {
        "encoding": "mapping",
        "key": "t_string_memory_ptr",
        "label": "mapping(string => mapping(string => bool))",
        "numberOfBytes": "32",
        "value": "t_mapping(t_string_memory_ptr,t_bool)"
      },
      "t_string_memory_ptr": {
        "encoding": "bytes",
        "label": "string",
        "numberOfBytes": "32"
      },
      "t_string_storage": {
        "encoding": "bytes",
        "label": "string",
        "numberOfBytes": "32"
      },
      "t_uint256": {
        "encoding": "inplace",
        "label": "uint256",
        "numberOfBytes": "32"
      }
    }
  }
}